:020000040800F2
:10000000C810002041020008490200084B02000805
:100010004D0200084F0200085102000800000000D5
:10002000000000000000000000000000790100084E
:100030005502000800000000F10100082D02000830
:100040005B0200085B0200085B0200085B0200081C
:100050005B0200085B0200085B0200085B0200080C
:100060005B0200085B0200085B0200085503000801
:100070007503000895030008B5030008D5030008C0
:10008000F5030008150400085B0200085B02000885
:10009000113700085B0200085B0200085B020008E1
:1000A0005B0200085B0200085B0200085B020008BC
:1000B0005B0200085B0200085B0200085B020008AC
:1000C0005B0200085B0200085B0200085B0200089C
:1000D0005B0200085B0200085B0200085B0200088C
:1000E0005B0200085B0200085B020008DFF81CD01E
:1000F00000F01AF903F0A4FE0021034803F03AFFD0
:1001000003F0B0FEFEE7000074530008C8100020A2
:1001100080F309887047EFF309807047684680F3E1
:10012000098804480078C00714BF0220032080F328
:100130001488704734530008DFF818C0EFF30583C4
:100140001B0618BF6047EFF31483DB0708BF604747
:1001500000DF70479F400008DFF818C0EFF3058309
:100160001B0618BF6047EFF31483DB0708BF604727
:1001700000DF70471D430008EFF30980816911F823
:10018000021CF1B990E80F10E047EFF3098C8CE8FE
:100190000700144B93E8060091420FD039B12CE9C7
:1001A000F00FC1F828C00CB404F0E8FB0CBC1A60D6
:1001B000D2F828C0BCE8F00F8CF309886FF0020E6B
:1001C000704710B5084A1268914209D8074C54F894
:1001D000214090E80F10A047EFF3098C8CE80F0046
:1001E00010BD0000F80000204C0300084C0300087C
:1001F00004F05AFA0C4B93E80600914210D0EFF34A
:10020000098C2CE9F00FC1F828C00CB404F0B6FB3F
:100210000CBC1A60D2F828C0BCE8F00F8CF3098837
:100220006FF0020E70470000F800002004F06EFC32
:10023000E0E7000003F032FF04F068FCDAE70000BA
:100240000648804706480047FEE7FEE7FEE7FEE770
:10025000FEE7FEE7FEE7FEE7FEE7FEE7D10900085E
:10026000ED0000082DE9F05F0546002092469B4610
:1002700088460646814640241BE0284641464746BC
:10028000224600F041F853465A46C01A914110D315
:1002900011461846224600F028F82D1A67EB01088F
:1002A0004F4622460120002100F01FF817EB0009FD
:1002B0004E41201EA4F10104DFDC484631462A46A7
:1002C0004346BDE8F09FD2B201E000F8012B491E81
:1002D000FBD270470022F6E710B513460A460446E3
:1002E0001946FFF7F0FF204610BD202A04DB203A14
:1002F00000FA02F1002070479140C2F1200320FA79
:1003000003F3194390407047202A04DB203A21FA76
:1003100002F00021704721FA02F3D040C2F120021E
:100320009140084319467047064C074D06E0E068C7
:1003300040F0010394E8070098471034AC42F6D32C
:10034000FFF7D8FE185600083856000800000000D5
:100350007047000010B50548006800F00F0403481E
:1003600044602046FFF7F4FF10BD0000000002408B
:100370007047000010B505480068C0F30314200161
:10038000024948602046FFF7F3FF10BD000002401D
:100390007047000010B505480068C0F30324200230
:1003A000024948602046FFF7F3FF10BD00000240FD
:1003B0007047000010B505480068C0F303342003FF
:1003C000024948602046FFF7F3FF10BD00000240DD
:1003D0007047000010B505480068C0F303442004CE
:1003E000024948602046FFF7F3FF10BD00000240BD
:1003F0007047000010B505480068C0F3035420059D
:10040000024948602046FFF7F3FF10BD000002409C
:100410007047000010B505480068C0F3036420066B
:10042000024948602046FFF7F3FF10BD000002407C
:1004300001461D48814204D11C488069C0F38000F8
:1004400070471B48814204D118488069C0F3C0003E
:10045000F6E71848814204D114488069C0F30010BF
:10046000EEE71548814204D110488069C0F340107E
:10047000E6E71248814204D10C488069C0F380103D
:10048000DEE70F48814204D108488069C0F3C010FC
:10049000D6E70C48814204D104488069C0F30020AB
:1004A000CEE70020CCE70000000801400010024029
:1004B000000C0140001001400014014000180140F0
:1004C000001C0140002001402DE9F04102460025BA
:1004D0000026002000230024002791F803C00CF020
:1004E0000F0591F803C00CF0100CBCF1000F03D005
:1004F00091F802C04CEA050591F800C0BCF1000F6C
:1005000031D0146800202BE04FF0010C0CFA00F3FE
:10051000B1F800C00CEA03069E4220D183004FF0E0
:100520000F0C0CFA03F7BC4305FA03FC4CEA040475
:1005300091F803C0BCF1280F06D14FF0010C0CFA62
:1005400000FCC2F814C00AE091F803C0BCF1480FE7
:1005500005D14FF0010C0CFA00FCC2F810C0401C91
:100560000828D1D31460B1F800C0BCF1FF0F34DD0E
:10057000546800202EE000F1080C4FF0010808FA42
:100580000CF3B1F800C00CEA03069E4221D18300AF
:100590004FF00F0C0CFA03F7BC4305FA03FC4CEACE
:1005A000040491F803C0BCF1280F05D100F1080C38
:1005B00008FA0CF8C2F8148091F803C0BCF1480F97
:1005C00007D100F1080C4FF0010808FA0CF8C2F846
:1005D0001080401C0828CED35460BDE8F0812DE97E
:1005E000F04105460C46174698460F2C02D90020CC
:1005F000BDE8F0812846FFF71BFF18B90121284606
:1006000000F02AF8B8F1000F10D1022F05D1E868E8
:100610000121A1408843E86008E0032F06D127F0BC
:100620000107E8680121A1400843E860082C01D2D5
:100630002E4601E0083C2E1D3068A2000F2191409B
:100640008843306048EA8700A10088403168084349
:1006500030600120CCE70000002945D0454A904297
:1006600006D1454A926942F00402434B9A6180E008
:10067000424A904206D1404A926942F008023E4BFB
:100680009A6176E03E4A904206D13B4A926942F036
:100690001002394B9A616CE03A4A904206D1364AD0
:1006A000926942F02002344B9A6162E0364A9042ED
:1006B00006D1314A926942F040022F4B9A6158E0CC
:1006C000324A904206D12C4A926942F080022A4B6B
:1006D0009A614EE02E4A90424BD1274A926942F4E9
:1006E0008072254B9A6144E0224A904206D1224A08
:1006F000926922F00402204B9A613AE01F4A90422C
:1007000006D11D4A926922F008021B4B9A6130E023
:100710001B4A904206D1184A926922F01002164BE9
:100720009A6126E0174A904206D1134A926922F054
:100730002002114B9A611CE0134A904206D10E4AE6
:10074000926922F040020C4B9A6112E00F4A9042EB
:1007500006D1094A926922F08002074B9A6108E0AB
:100760000B4A904205D1044A926922F48072024BEE
:100770009A6170470008014000100240000C0140DF
:10078000001001400014014000180140001C01400D
:10079000002001400146886880B27047416170477F
:1007A00001617047F0B500F00F0201F030010C4E0E
:1007B00006EB8205D5F8003C03F0300585EA01041C
:1007C00023F030052C4348F6BF75254045F08005E1
:1007D00045F40045374607EB8206C6F8005CF0BDDD
:1007E00000500040F0B500F00F0201F440510C4EF3
:1007F00006EB8205D5F8003C03F4405585EA010478
:1008000023F440552C434BF68F75254045F0800569
:1008100045F40045374607EB8206C6F8005CF0BD9C
:100820000050004029B1064A92690243044B9A6184
:1008300004E0034A92698243014B9A6170470000C9
:100840000010024010B500F001F810BD0CB50020FA
:10085000019000903348006840F4803031490860CE
:1008600000BF3048006800F4003000900198401C40
:100870000190009818B90198B0F5A06FF1D12948FE
:10088000006800F4003010B10120009001E0002069
:1008900000900098012843D12348006840F01000E0
:1008A000214908600846006820F0030008600846F7
:1008B000006840F0020008601A4840681949486022
:1008C0000846406848600846406840F480604860D8
:1008D0000846406820F47C1048600846406840F4B0
:1008E000E81048600846006840F08070086000BF6B
:1008F0000C48006800F000700028F9D009484068F2
:1009000020F00300074948600846406840F00200B4
:10091000486000BF0348406800F00C000828F9D187
:100920000CBD0000001002400020024010B5002164
:1009300000200022214B5B6803F00C0121B1042947
:1009400006D0082928D107E01D4B1E4C236027E064
:100950001B4B1C4C236023E0184B5B6803F47010A6
:10096000164B5B6803F48032022303EB904022B9FC
:10097000154B4343134C23600DE0104B5B6803F4AD
:10098000003323B1104B43430E4C236003E00C4B68
:1009900043430C4C236003E0094B0A4C236000BF27
:1009A00000BF064B5B68C3F30313084CE15C054BC7
:1009B0001B68CB40034C236010BD000000100240B8
:1009C00000127A003400002000093D0038000020A9
:1009D00010B51348006840F001001149086008464E
:1009E0004068104908400E494860084600680E49B2
:1009F00008400B4908600846006820F48020086021
:100A00000846406820F4FE0048604FF41F008860EC
:100A1000FFF718FF4FF000600449086010BD0000A8
:100A2000001002400000FFF8FFFFF6FE08ED00E0B6
:100A3000002000F051B910B504462146002002F014
:100A400065FD10BD70B504460D462A4621460020BE
:100A500002F064FD70BD000007490978884209D2A0
:100A6000064951F8200028B1C16819B1006808B1E1
:100A700000207047212070471C54000820540008B3
:100A80002DE9F04106460027002412E00B4850F8FB
:100A90002400806958B1094850F82400007FB04212
:100AA00005D1204601F000FE054605B12F46601C29
:100AB000C4B2012CEADB3846BDE8F08174000020A6
:100AC00001460020704701460020704770470146EC
:100AD0000020704710B50446FFF7BEFF002804D180
:100AE0002046BDE8104000F037BA10BD70B504468E
:100AF0002D4E0D46C80704D056F8241009B1012028
:100B00008847A80707D556F8241009B10020884760
:100B1000204602F071FC680721D5204602F06CFCEB
:100B2000224850F824000668F078B38800F00302E9
:100B3000B178204600F068FA48B9F078B38800F040
:100B40000302B07840F08001204600F05DFA2046B4
:100B500002F038FC164850F8240000B180472807FE
:100B60000BD51449012051F82410C96881F895006B
:100B7000114850F8240000B18047E80604D50F481A
:100B800050F8240000B18047A80604D50C4850F85E
:100B9000240000B18047290A480704D02046BDE858
:100BA000704000F073BD70BDE0540008E400002008
:100BB000E454000820540008E8540008EC540008ED
:100BC000F054000810B504460C480078844201D364
:100BD000002010BD0A4850F82400C0680028F8D052
:100BE0000849D0F8AC0051F8241088470028F0D10B
:100BF0002046BDE81040FFF763BF00001C5400080A
:100C0000205400080C55000810B504460C48007824
:100C1000844201D3002010BD0A4850F82400C06867
:100C20000028F8D00849D0F8AC0051F824108847C3
:100C30000028F0D12046BDE81040FFF744BF000077
:100C40001C540008205400080855000810B504463C
:100C50000A48007884420FD2094850F82400C0683E
:100C6000002809D00749A03051F8241088472046B1
:100C7000BDE81040FFF72ABF10BD00001C5400085B
:100C8000205400080455000810B504460F480078A9
:100C9000844201D3002010BD0D4850F82400C068E4
:100CA0000028F8D00021C0F8A810C0F8AC100949FD
:100CB00000F1AC0251F82430111FA03098470028F1
:100CC000E9D12046BDE81040FFF701BF1C540008E1
:100CD00020540008005500082DE9F047C6B220480E
:100CE0000078864239D21F4800244FF0FF3750F871
:100CF0002600D0F800901C4850F82600C10708D004
:100D0000810701D401246427400702D444F002047F
:100D100064274FF00008E00701D0012119E03846B0
:100D200002F088FC0146000113D5D9F81C00804769
:100D300000F001054545F2D0A846E00704D01DB1FA
:100D400001213046FFF7D2FEA007E8D5002DE6D1FD
:100D500002213046FFF7CAFEE1E7BDE8F087000058
:100D60001C54000820540008B400002070B512493B
:100D7000002551F82010CC68D4F89C3063B1802154
:100D8000D4F8982000F0E4F9002804D1F4E9261200
:100D90001144C4E9001570BD94F8961049B10023C0
:100DA0001A46802100F0D4F90028F4D184F8965036
:100DB00070BD222070BD000020540008094910B504
:100DC00051F82010CC680021D4E9262300F0C0F9A6
:100DD000002805D1F4E92601084420600020606065
:100DE00010BD00002054000810B50446204603F052
:100DF0001BF8404210BD7047704770470146002005
:100E00007047014600207047704703460020704736
:100E100070477047704710B5FFF7FAFF10BD704775
:100E200070477047704700001048007810B94FF0C5
:100E3000FF3070470E20002121B1012282400C4B6F
:100E40001A6105E000F1100201239340084A136182
:100E500000BF01200749086000200860091D0860E4
:100E60004FF4E050091F08600020E2E71C0000205A
:100E7000000C0140405C00400C48007810B94FF075
:100E8000FF30704703200A4908600E20012121B17C
:100E900001228240074B1A6105E000F11002012394
:100EA0009340044A136100BF0020EAE71C000020C1
:100EB000405C0040000C014008B50E4800680099F5
:100EC00060F3000100910B4800684108009861F34D
:100ED0004200009007480068C108009861F3C30011
:100EE0000090044800680109009861F31F10009009
:100EF000009808BD2000002010B50C48007810B9FB
:100F00004FF0FF3010BD0A480068094909680843DE
:100F100007490860022002F087FF0548006804497D
:100F200009688843024908600020EBE71C000020A4
:100F3000405C004001460648007810B94FF0FF3091
:100F4000704741F08000034A10600020F8E700007D
:100F50001C0000204C5C004070B505460324114E77
:100F600009E000BF56F82500642102F059FA28B1C3
:100F70000A20FFF739FF641EE4B2F3D26CB10A48CD
:100F800050F82500006840698047044656F825005F
:100F900002F094FA1CB1222070BD232070BD002005
:100FA00070BD000050000020205400082DE9F041E1
:100FB0000F4605460324124E09E000BF56F82500EF
:100FC000642102F02DFA28B10A20FFF70DFF641EFC
:100FD000E4B2F3D27CB10B4850F825000068416AB6
:100FE00038468847044656F8250002F067FA24B1CF
:100FF0002220BDE8F0812320FBE70020F9E7000074
:1010000050000020205400082DE9F05F93468846E8
:1010100001F00F020646102101EAD80021499A4644
:1010200010440B78102806FB0322D4B202D3D9B2A5
:101030002144CCB2DFF87090142202EB800059F802
:101040002610C968085820B14146304600F0EAF839
:1010500000BB164F022500BF57F82400642102F0A0
:10106000DFF928B10A20FFF7BFFE6D1EEDB2F3D203
:10107000ADB159F82600524659460068C36A404649
:101080009847054657F8240002F018FA15F1020FA8
:1010900005D015B12220BDE8F09F0020FBE72320FA
:1010A000F9E70000B454000820540008180C002090
:1010B0002DE9F0479246884601F00F0206461021BE
:1010C00001EAD8001F49104410280B7806FB0322C0
:1010D000D4B202D3D9B22144CCB2DFF86C9014223E
:1010E00002EB800059F82610C968085820B1414623
:1010F000304600F097F8F0B9144F0225642157F8F4
:10110000240002F08DF928B10A20FFF76DFE6D1E54
:10111000EDB2F3D2A5B159F8260051460068426BF2
:1011200040469047054657F8240002F0C7F915F1EC
:10113000020F05D015B12220BDE8F0870020FBE7A3
:101140002320F9E7B454000820540008180C0020AC
:101150002DE9FF5F04460F4610202F4A01F00F03D0
:1011600000EAD700191815784FF0010A04FB05337F
:101170000AFA01F0DDB2102902D312782A44D5B25E
:10118000264B53F82420D268D668064242D1142058
:1011900000EB81089B4652F8080030B1380739D17E
:1011A0003946204600F03EF870BBDFF87490022606
:1011B000642159F8250002F033F928B10A20FFF71D
:1011C00013FE761EF6B2F3D226B35BF82420514606
:1011D000DA46D36843F808105BF82400DDE9021210
:1011E0000068836B38469847060005D05AF82400FB
:1011F0000021C26842F8081059F8250002F05EF993
:1012000016F1020F06D01EB1222004B0BDE8F09FF7
:101210000020FAE72320F8E7B4540008205400081F
:10122000180C00202DE9F047884601F00F02064611
:10123000102101EAD8002049104410280B7806FB41
:101240000322D4B202D3D9B22144CCB2DFF86CA0CD
:101250005AF82610CA68142101EB800952F80900D7
:10126000002818D0164F0225642157F8240002F0F8
:10127000D7F828B10A20FFF7B7FD6D1EEDB2F3D203
:1012800045B15AF826000068016C404688470500C1
:1012900003D008E02320BDE8F0875AF8260000219B
:1012A000C26842F8091057F8240002F007F90DB19E
:1012B0002220F0E70020EEE7B45400082054000894
:1012C000180C00202DE9F0410E4601F00F02804677
:1012D0001649102000EAD60010440C78102808FBAC
:1012E0000422D4B202D308782044C4B2104F02259D
:1012F000642157F8240002F093F828B10A20FFF780
:1013000073FD6D1EEDB2F3D275B10A4951F8280094
:101310000068C16B30468847054657F8240002F044
:10132000CDF82846BDE8F0810020FBE7B454000862
:10133000180C0020205400082DE9F047884601F0E1
:101340000F020646102101EAD80020491044102857
:101350000B7806FB0322D4B202D3D9B22144CCB21B
:10136000DFF86C90142202EB800059F82610C9684F
:10137000085820B141463046FFF754FFF0B9154FE9
:10138000022500BF57F82400642102F049F828B173
:101390000A20FFF729FD6D1EEDB2F3D29DB159F879
:1013A00026000068016B40468847054657F8240030
:1013B00002F084F815F1020F05D015B12220BDE826
:1013C000F0870020FBE72320F9E70000B454000871
:1013D00020540008180C0020024951F82000006831
:1013E0004068004720540008024951F82000006876
:1013F00000680047205400082DE9F0411746884650
:1014000005460324114E08E056F82500642102F039
:1014100007F828B10A20FFF7E7FC641EE4B2F3D214
:1014200084B10B48394650F8250000688268404670
:101430009047044656F8250002F040F824B12220D7
:10144000BDE8F0812320FBE70020F9E750000020F1
:10145000205400082DE9F0410F4605460324124EA2
:1014600009E000BF56F82500642101F0D9FF28B13A
:101470000A20FFF7B9FC641EE4B2F3D27CB10B483A
:1014800050F825000068016938468847044656F838
:10149000250002F013F824B12220BDE8F0812320BA
:1014A000FBE70020F9E7000050000020205400086E
:1014B0002DE9F0410F4605460324124E09E000BF16
:1014C00056F82500642101F0ABFF28B10A20FFF790
:1014D0008BFC641EE4B2F3D27CB10B4850F82500BB
:1014E0000068816A38468847044656F8250001F0AE
:1014F000E5FF24B12220BDE8F0812320FBE7002096
:10150000F9E7000050000020205400082DE9F843BE
:1015100003464FEA037C4FEADC6C0CEBD31C0CEB6C
:101520008C0CDFF8B88008EB8C0003F00F06DFF8B6
:10153000B0C0DCF800C00CEB061CBCF80CC0CCF34F
:10154000090109B9BDE8F883D0F800C0BCF1000F6B
:1015500000D1F7E7DFF888C0DCF800C00CEB061C10
:10156000DCF808C0DFF87C804FF0020909FB0C842E
:10157000D0F800C0D0F808800CEB08024D0804E059
:1015800054F8048B22F8028B6D1E002DF8D1D0F890
:1015900008C08C44C0F808C001F0010CBCF1000F79
:1015A0000AD01746D4F800C01FFA8CFCADF800C072
:1015B0009DF800C087F800C0B0F80EC08C4504D07C
:1015C0004FF0000CC0F804C005E0D0F804C0ACEB4C
:1015D000010CC0F804C000BFB4E70000C00900203F
:1015E00030000020006000402DE9F047064630073B
:1015F000C00E00EBD61000EB8000204901EB800408
:1016000006F00F076068E189884201D9E58901E0A9
:10161000606885B22068A16800EB010A184800687C
:1016200000EB071000681749022202FB0019A58190
:101630006068401B6060681C4FEA500807E03AF899
:10164000020B49F8040BA8F101001FFA80F8B8F169
:10165000000FF4D10A48006800EB071045600A4902
:1016600001EB8700D0F8000C00F03000102803D008
:1016700030213046FFF796F8BDE8F087C00900201A
:101680003000002000600040005000402DE9F0478D
:101690000546D64888460078854278D2DFF85093D0
:1016A00059F82570002F72D0FC68002C6FD05FEACB
:1016B00048704FF0000632D594F8A000000621D5FE
:1016C000D4F89C0010B994F8960020B12846FFF792
:1016D0004DFB20B30AE094F8970000B384F89760BC
:1016E0002846FFF76FFA48B1012807D001220021F0
:1016F0002846FFF7DDFCC4F89C6010E0284601F0A6
:101700003EFF0CE0284601F032FF40B9A078010608
:1017100005D500F07F01A1702846FFF747FC5FEA7E
:10172000887045D594F8A00001063ED4D4F89C10EA
:1017300021B12846FFF742FB50B32EE094F89710F2
:1017400059B184F897602846FFF75EFA08B101287E
:1017500023D1284601F006FF2AE0C0F34111E1B190
:1017600001291AD110F01F0017D0012802D0022839
:1017700013D10EE0284600F047F948B9284600F09A
:101780003DF928B9284600F03CF908B905E04AE0DF
:101790000EE0284600F02FF9F7E7012280212846C5
:1017A000FFF786FCC4F89C6002E0284601F0ECFEDE
:1017B0005FEAC87037D02846C84659F82010C96873
:1017C000A031FFF775FE00282DD12846FFF75CFAFF
:1017D0000121B8B301285BD1D4F8A80018B9D4F816
:1017E000AC20002A54D1B4F8A620F2B1C4F8980075
:1017F000D4F8AC00C4F89C0084F8971094F8A0309A
:101800001B0603D42846FFF7D9FA0AE0904205D216
:101810007A7D521E104201D184F896102846FFF7B7
:10182000A5FA002834D1BDE8F08794F8A00000069E
:10183000284603D4BDE8F04701F094BEBDE8F04768
:1018400001F09DBEB868C4F89800B4F8A600C4F8CA
:101850009C0094F8A000C0F3411212B1012A17D1E4
:101860007DE094F8A1000C2812D2DFE800F0061207
:10187000AB14AB1A34AB3A505474284601F096FAC4
:101880002CE02846FFF7E2F92846FFF76FFAE0B3AD
:1018900098E0002100E00121284601F0E1FA98B922
:1018A00090E058F82500C06880B3B0F8A41069BB78
:1018B000B0F8A61051BB90F8A010C90626D190F838
:1018C000A21041F0800181702846FFF7BFF9284639
:1018D00001F048FE5EE0284601F0B4F90028D0D1BE
:1018E00070E058F82500C06880B1B0F8A2206AB94D
:1018F000B0F8A42052B9B0F8A620012A62D190F81D
:10190000A020D2065ED1C21C1EE020E043E02846A3
:1019100001F02EFBC3E758F82520E2B3D068D0B31E
:10192000B0F8A230BBBBB0F8A630012B4AD190F87A
:10193000A03003F01F03012B44D1B0F8A430578A24
:10194000BB423FD252681A44C0E9262199E7284693
:1019500001F015FE1EE0284601F03EFC9FE710F066
:101960001F002FD0012802D002282BD126E02846C4
:1019700000F016F958B9284600F0BEF938B92846E3
:1019800000F007F918B9284600F006F918B1284602
:10199000FFF75CF900E015E094F8A00000063FF5C1
:1019A00042AFB4F8A60000283FF43DAF2846FFF749
:1019B00005FA0028F8D0012280210DE0284600F029
:1019C000E5F8E3E794F8A0000006B4F8A60009D40F
:1019D0000028F0D0012200212846FFF769FBC4F857
:1019E0009C6020E70028E6D1F4E700001C540008C2
:1019F000205400087047014600207047014600202F
:101A000070470146002070472DE9F041054618480F
:101A10000078854226D2174850F82500C6680EB3D4
:101A20000024DFF85480154F19E000BF58F8240057
:101A300098B1017FA94210D1B6F8A410407F81422D
:101A40000BD196F8A100092807D1204600F0D4FC5C
:101A500018B1284601F086FD38B1641CE4B238782C
:101A60008442E3D30020BDE8F0810120FBE70000C1
:101A70001C5400082054000874000020245400085E
:101A80002DE9F0473B4B1B78984271D23A4B53F803
:101A900020C0BCF1000F6BD0DCF80C40002C67D0EC
:101AA000B4F8A230DFF8D4901B0A354F354D212B06
:101AB00002D0222B5CD131E000263346BA460FE03B
:101AC0005AF8237057B197F81C80804506D1B4F8B6
:101AD000A4807F7FB84506D0761CF6B25B1CDBB2D3
:101AE0002F78BB42ECD32D78AE4241D09CF81160E8
:101AF000254D94F8954066B164B155F820004069D1
:101B00000860044659F82300C08820440860092072
:101B100029E064BB55F820000069F1E70026334650
:101B200013E000BF57F823C0BCF1000F0BD09CF8A6
:101B30001C80804507D1B4F8A4809CF81DC0E04506
:101B400007D0761CF6B25B1CDBB295F800C063458B
:101B5000E8D3287886420BD059F8234024680C60DB
:101B600059F82300808810600120BDE8F087FFE766
:101B70000020FAE71C5400082054000834550008DF
:101B80007400002024540008E400002001460020D6
:101B90007047014600207047014600207047000052
:101BA0002DE9F05F504980460978884270D24F494C
:101BB00051F82870002F6BD0FC68002C68D00026EC
:101BC0004FF0030A4FF0010BDFF8249185E04948FC
:101BD00050F82650002D7ED0297F41457BD1B4F8A6
:101BE000A410687F814276D194F8A1000C2872D2AB
:101BF000DFE800F071063E51717171717123476326
:101C0000304600F065FB90B3B4F8A200BBEB102F98
:101C100006D1698ED4F89C00884263D8E86808E051
:101C2000BAEB102F28D1E98ED4F89C00884259D8FD
:101C30006869401CC4F898001EE0B4F8A2000221B4
:101C4000B1EB102F06D1A98ED4F89C00884249D858
:101C5000286908E0BAEB102F3AD1E98ED4F89C003D
:101C600088423FD86869401CC4F8980030E032E0F0
:101C7000304600F0F1FA11E04046FFF777F8C0B1C6
:101C800029E0B4F8A60018B9304600F055FB1AE078
:101C900028E0E8B11FE0304600F0FAFAD8B1B868A1
:101CA000C4F89800D4F89C000128E5D9C4F89CB089
:101CB000E2E7404601F063FCEBE7B4F8A60088B920
:101CC000304600F079FB30B1404601F04BFCE0E7D4
:101CD0000120BDE8F09F761CF6B299F8000086421C
:101CE000FFF475AF0020F4E71C54000820540008EE
:101CF00024540008740000200146002070470000B2
:101D00002DE9F05F04468A46934604F00F05082D3E
:101D100003D94FF0FF30BDE8F09F6348007810B959
:101D20004FF0FF30F7E72007C00E00EBD41000EBB8
:101D300080005E4901EB800898F8100010B16FF048
:101D40000100E8E7CBF30A06C4F3C0192007C00E70
:101D500000EBD410564931F8100081192007C00E4D
:101D600000EBD410401C524A32F81000814202DDD0
:101D70004FF0FF30CFE714214046FEF7ABFAA8F84A
:101D80000E60B9F1000F0CD02007C00E00EBD4108C
:101D9000474931F810004749096801EB051108600F
:101DA00027E02007C00E00EBD410414931F81000A5
:101DB0004049096801EB051188603E2E0FDD06F1F0
:101DC0001F0020F01F0086B20120C0EB461040F437
:101DD00000403849096801EB0511C86009E0701C32
:101DE00020F0010086B270023249096801EB05114A
:101DF000C860BAF1000F09D0BAF1010F09D0BAF1E9
:101E0000020F09D0BAF1030F0BD107E04FF40077AE
:101E100007E04FF4806704E0002702E04FF4C0675A
:101E200000BF00BF24B94FF448502349086038E090
:101E3000802C36D02F43214901EB8500C0F8007C6F
:101E4000B9F1000F16D0280701EB9060D0F8000C14
:101E500048F6FF71084040F0800040F40040290738
:101E6000164A02EB9161C1F8000C20212846FEF7CA
:101E700099FC16E02807114901EB9060D0F8000C9E
:101E80004FF68F71084040F0800040F40040290771
:101E90000A4A02EB9161C1F8000C51142846FEF782
:101EA000A1FC002037E700001C000020C009002032
:101EB0008C53000830000020005C004000500040BF
:101EC0002DE9F04105460F4605F00F04082C03D913
:101ED0004FF0FF30BDE8F0812B48007810B94FF08B
:101EE000FF30F7E72807C00E00EBD51000EB8000AD
:101EF000264901EB800898F8100010B16FF001003E
:101F0000E8E7C5F3C016012F0BD126B110212046FA
:101F1000FEF748FC35E04FF480512046FEF762FCA6
:101F20002FE0BEB120071A4901EB9060D0F8000CF9
:101F300048F6FF71084040F0800040F4004021075F
:101F4000134A02EB9161C1F8000C20212046FEF7F4
:101F500029FC16E020070E4901EB9060D0F8000C38
:101F60004FF68F71084040F0800040F40040210798
:101F7000074A02EB9161C1F8000C51142046FEF7AC
:101F800031FC0020A6E700001C000020C009002052
:101F90000050004070B506460D4600241EE0114872
:101FA00050F824008069B8B10E4850F82400007F32
:101FB000B04211D10B4850F82400807F40F08000DF
:101FC000A84205D0074850F82400C07FA84203D19A
:101FD0002946204600F048FA601CC4B2012CDEDB22
:101FE00070BD000074000020704700002DE9F0472C
:101FF00005460E46174605F00F08B8F1080F03D93D
:102000004FF0FF30BDE8F0871548007810B94FF069
:10201000FF30F7E72807C00E00EBD51000EB80007B
:10202000104901EB8004207C10B16FF00100E9E75A
:10203000C5F3C01901202074266067600020A060ED
:10204000A081B9F1000F03D02846FFF7CDFA04E0D4
:102050004FF440514046FEF7C5FB0020D2E7000098
:102060001C000020C0090020F0B5044604F00F0653
:10207000082E02D94FF0FF30F0BD1148007810B99A
:102080004FF0FF30F8E7C4F3C0172007C00E00EB95
:10209000D41000EB80000B4901EB80050020686044
:1020A00027B120213046FEF77DFB04E04FF40051BC
:1020B0003046FEF797FB0020287400BFDCE70000E5
:1020C0001C000020C0090020014601F00F00082874
:1020D00001D9002070470807C00E00EBD11000EBBB
:1020E0008000024A02EB80008068F3E7C00900200C
:1020F0002DE9F041054605F00F04082C03D94FF0F7
:10210000FF30BDE8F0812648007810B94FF0FF306D
:10211000F7E72807C00E00EBD51000EB800021493F
:1021200001EB8006307C10B16FF00100E9E7C5F3E8
:10213000C017BFB120071C4901EB9060D0F8000C1C
:1021400048F6FF71084040F0800040F4004021074D
:10215000154A02EB9161C1F8000C00212046FEF700
:1021600021FB16E02007104901EB9060D0F8000C2D
:102170004FF68F71084040F0800040F40040210786
:10218000094A02EB9161C1F8000C00212046FEF7DC
:1021900029FB14213046FEF79DF80020B1E700002E
:1021A0001C000020C00900200050004001480068C9
:1021B00070470000885300080448007808B90020E0
:1021C000704703480068C0F30A00F9E71C000020CC
:1021D000485C004008B502480068009008BD000057
:1021E000845300084FF0FF30704710B504464FF09D
:1021F000FF3010BD704701460020704730B50546DE
:10220000039C002030BD002000F0E4BA70470000BD
:102210000D490978884212D20C4951F8200070B15A
:10222000816961B10A49007F0978884209D2094968
:1022300051F8200028B1C06818B10020704728204C
:1022400070472120704700002454000874000020CB
:102250001C5400082054000810B50446FFF7D8FFAE
:1022600008B1002010BD0848084A50F82400017F3A
:10227000806852F82110CA68896892F8A220805CB0
:102280000870012010BD00007400002020540008D8
:1022900010B50446FFF7BCFF88B90A4850F824007F
:1022A00068B1804700280ADB0749084A51F8241022
:1022B000097F52F8211089680870012010BD0020A4
:1022C00010BD0000D0540008740000202054000805
:1022D00070B5164D0446164955F82400007F51F894
:1022E0002000C6682046FFF793FFE0B9B6F8A210B9
:1022F000080A012804D0022815D0032813D103E0CE
:1023000055F82420D36802E055F824205369094A7F
:102310005B1C52F8244034B1CAB20021A047002807
:1023200001DB012070BD002070BD000074000020A2
:1023300020540008C854000870B50446FFF768FF31
:1023400008B1002070BD194A194952F82430187F8D
:1023500051F82000C068B0F8A21011F0FF0F05D0AE
:102360000A0A9B68C9B2491E5A540EE0002106E0D1
:10237000B0F8A2509B682D0A5D54491CC9B252F8AE
:10238000243093F830508D42F2D890F8A20010F02B
:10239000FF0F084850F8240004D0042101F070F920
:1023A000012070BD01F079F9FAE700007400002007
:1023B000205400085800002010B50446FFF728FFFD
:1023C00088B90A4850F8241069B10948094A50F8F8
:1023D0002400007F52F82000C06890F8A2008847CF
:1023E00008B1012010BD002010BD0000D454000829
:1023F0007400002020540008F8B5184F044618490E
:1024000057F824000025007F51F82000C6682046B8
:10241000FFF7FEFEF8B9B6F8A210080A01281AD094
:10242000022802D0032816D103E057F824201369AC
:1024300002E057F8242053690A4A5B1C52F82440F2
:102440004CB1B6F8A6200092CAB20021A047050000
:1024500001D00120F8BD2846F8BD0000740000201E
:1024600020540008CC54000870B50C460546FFF710
:10247000CFFE00280DD1074850F82500C17FA142AA
:1024800007D18269838E007FD268BDE87040FEF775
:102490005FBE70BD740000202DE9F0470746FFF7CE
:1024A000B7FE002879D1594850F82750AC69E08A26
:1024B000A18ADFF85C914FF0000888421DD3207F8D
:1024C000D8B9C4F80880A4F8168059F8276036B146
:1024D000E868431C027801210846B047A082A08A20
:1024E00058B1E868A06095F83010012902D8401C66
:1024F000A06002E0A08A401CA082A08A4FF0010ADE
:1025000010BB207F00BB607810B184F8018047E0E9
:102510006368CBB195F83020012A16D8E96881F8B4
:102520000080A4F8168059F8276036B1EB680022C5
:10253000022101205B1CB047A082A08A10B1E8688C
:10254000401CA060C4F804802AE0607F411CCEB229
:10255000B24200D200260AFA06F10B421ED0E96808
:10256000701C0870A4F8168059F827C0BCF1000F41
:1025700006D0C2B2EB68022101205B1CE047A082BA
:10258000A08A20B1E868A060A08A401CA08261688F
:102590000AFA06F08143616002E02BE0B042D7D135
:1025A000A08A08B9207F50B3287F1A4951F820101B
:1025B000CF68A18AE28A891A8EB2A97F334641F098
:1025C0008001A268FEF7C4FDA0683044A060E08AE4
:1025D000304480B2E082698E884209D297F8950033
:1025E00005EB4000808CB6FBF0F100FB116018B1E8
:1025F00084F81C80BDE8F08784F81CA0FAE7064840
:1026000050F82700BDE8F04700F058BF74000020E4
:10261000C8540008205400085C0000202DE9F8434D
:102620000646FFF7F5FD002838D11D48002750F871
:102630002640A56994F81C80288B08B92069E860B9
:10264000E17F4046FEF73EFEE96882B21144E96050
:10265000298B084480B21349288394F8312051F81B
:102660002660012A04D876B100900022236905E093
:102670004EB1401E00902069431C027801210220C7
:10268000B04700280AD02269EA602F83A38EE17F39
:1026900001B04046BDE8F043FEF75ABDBDE8F883FF
:1026A00074000020CC54000870B50446FFF7B0FD5C
:1026B00005002CD1174850F8240000B18047164E71
:1026C00056F8240030B92146052000F075FF46F881
:1026D000240020B1114E56F8240010B107E0102557
:1026E00015E0204600F0BCFF46F8240020B10C4E57
:1026F00056F8240010B10AE0112508E00022214616
:10270000022000F0A1FE46F8240000B91225284658
:1027100070BD0000C0540008540000205800002084
:102720005C0000202DE9F0410546FFF771FD00280F
:1027300026D1144850F825401348A66950F82500C2
:1027400008B100F0AAFFA07F20B140F08001207FF7
:10275000FEF768FDE17F11B1207FFEF763FD0B4FAF
:1027600057F8250030B1002100F05AFE57F8250037
:1027700000F0A4FE20213046FDF7ACFD2069F0609A
:10278000BDE8F08174000020580000205C000020AB
:1027900070B50446FFF73CFD002815D100210B4A17
:1027A0007D2303E080684354491CC9B252F82400D9
:1027B00090F830508D42F5D80548042150F8240097
:1027C000BDE8704000F05CBF70BD000074000020E8
:1027D0005800002070B5C4B22046FFF719FD00284C
:1027E00011D1451E284600F025FF0101FAD4060A42
:1027F000B00702D52046FFF711FF7007F2D520463B
:10280000FFF74AFEEEE770BD2DE9F047C4B220465F
:10281000FFF7FEFC00287AD14448454950F82420AF
:10282000107F936951F82000C068C17800296ED0EC
:102830005988091D89B2598090F8950038B1508C9B
:1028400038B13C4D05EB400030F8020C02E0108C32
:1028500000B901204FF0000CE246814203D1A3F8F9
:1028600002A04FF0010C0021012545E01768002669
:10287000B94637F811704FF6FC78474502D23F1D34
:1028800029F81170576837F811704FB1D2F80080ED
:10289000C14638F81180B84502D329F811A00126A5
:1028A00097687F5CB0EB870F02D90FB1012700E07A
:1028B000002717EA0C0F01D1BE4304D05E6805FA69
:1028C00001F73E435E6096685768765C37F8117092
:1028D000B600B7420ED056B1176837F81170B7423C
:1028E00005D35F6805FA01F847EA08075F60576893
:1028F00027F81160491CC9B292F830608E42B5D8F1
:10290000586808B15A7822B18D40A8435860BDE894
:10291000F0870948002150F8240000F081FD0028CC
:10292000F5D12046BDE8F047FFF7B6BD74000020A2
:1029300020540008F45500085C00002070B50446DF
:102940000D4616480078012801D1002070BD1448BA
:1029500004601448056001211348FDF77DFE0E2038
:10296000012121B1012282400F4B1A6105E000F1E3
:102970001002012393400C4A136100BF01231A4641
:102980000E210948FDF72BFE10B94FF0FF30DDE7AF
:102990000120024908700020D8E700001D00002037
:1029A0001400002018000020000C01402DE9F04721
:1029B0000446FEF751F8002821D12046FEF714FD09
:1029C0002F4901EB840108602046FEF705FD2D49E3
:1029D0002D4D41F8240055F8240038B90022214635
:1029E000104600F031FD45F8240038B1284E00258E
:1029F000DFF89890327804FB02F814E01220BDE86A
:102A0000F08700BF05EB4800C7B259F8270040B96E
:102A10002A462146012000F017FD49F8270000282A
:102A2000ECD06D1CEDB23078B5EB400FEAD319480D
:102A300050F8240000B180472046FEF721F8002816
:102A4000DDD1154D55F8240030B92146002000F0A5
:102A5000B3FD45F8240080B1104850F824201048F8
:102A600050F824102046FEF7C7FC0028C7D12046A6
:102A7000BDE8F0470221FEF7EDBC1020BFE70000E3
:102A8000B0000020B400002050000020180C0020EE
:102A9000B4540008D85400084C000020BC5400086E
:102AA000B854000810B5044614B1022C7ED155E08C
:102AB0004848C06940F400004649C8611420002815
:102AC00017DB00F01F0201219140434A430942F8FD
:102AD000231000BF00BF00BFBFF34F8F00BF00BF78
:102AE00000BF00BF00BF00BFBFF36F8F00BF00BFBC
:102AF00000BF00BF1420002807DB00F01F020121E7
:102B00009140364A430942F8231000BF002034495F
:102B10000870032033490860002301220E21324847
:102B2000FDF75DFD10B94FF0FF3010BD2948006979
:102B300040F400002749086100202C4908702C4807
:102B4000002101604FF4B4712A48FDF7C3FB21480E
:102B5000C06920F400001F49C86138E026480078A9
:102B600010B94FF0FF30E0E71D480078012801D18F
:102B70000020DAE71748C06940F400001549C86131
:102B80000846006940F400000861012001F04CF99A
:102B90001048006920F400000E49086100F0E8FBCD
:102BA00001200F4908701420002800E00CE009DB28
:102BB00000F01F02012191404209920002F1E0223F
:102BC000C2F8001100BF02E06FF00300ADE700BFE4
:102BD0000020AAE70010024080E100E080E200E06F
:102BE0001C000020405C0040000C01402C00002034
:102BF00020000020C00900201D00002001460E48D2
:102C0000007810B94FF0FF3070470C48007810B9C9
:102C10004FF0FF30F8E70020084A107008480268BB
:102C20000A60406848600548007810B14FF0FF30F6
:102C3000EAE70020E8E700001C0000202C0000204C
:102C4000240000202DE9F0415449097888426FD2D0
:102C5000534951F82060002E6AD0F568002D67D0E6
:102C600095F8A0104F4C11F01F0102D001295FD13F
:102C700076E0B5F8A2204C49130A082B58D2DFE8B9
:102C800003F08A041D588A8A0E3F12F0FF0F4FD1BD
:102C900051F820004068C5F8980012205EE0727C70
:102CA000002A78D095F8952051F8200022B1C0680C
:102CB000C5F898000A2051E08068F9E7737C002B82
:102CC00095F8953007D03BB151F82000406920605D
:102CD0000020D2B20BE05BBB51F820000069F6E7A0
:102CE00021680B7813B14B8819442160401C824243
:102CF000F6D120680178D9B1C5F8980040882DE058
:102D0000737CABB195F8953051F8200023B1C069C0
:102D100020600020D2B208E08069F9E721680B78D2
:102D200013B14B8819442160401C8242F6D1E0E780
:102D300031E051F82000D1B2006A2060002005E0A7
:102D400023681A780AB11A442260401C8142F7D1E4
:102D500020680178F9B1C5F898000078606009E052
:102D6000104A121D111FFEF78BFE002811D020689B
:102D7000C5F89800B5F8A6106068814208D9C5F872
:102D80009C00717D491E084202D1012085F8960001
:102D90000120BDE8F0810020FBE700001C54000882
:102DA00020540008F0000020E4000020F0B52A497B
:102DB000097888424DD2294951F82020F2B3D068D1
:102DC000002845D0926800F19801BAB3B0F8A2305B
:102DD000A3BBB0F8A630022B3BD190F8A03013F083
:102DE0001F044FF0020305D00025012C08D0022C4F
:102DF0002FD10FE0B0F8A42002BBC1E9000326E008
:102E0000C478DCB190F8A44090F89400844220D2B9
:102E1000157019E090F8A440102704F08F0404F016
:102E20000F0607EAD40737440126BE40C7780FB91A
:102E300024070ED1846834420BD000E009E0C0685A
:102E4000304000D0012010705570C1E900230120EE
:102E5000F0BD0020F0BD00001C5400082054000804
:102E60002DE9F04107463E480078874268D23D4848
:102E700050F82700C468002C62D0B4F8A6000028DF
:102E80005ED194F8A00010F01F0004D0012857D0A4
:102E9000022855D117E0B4F8A200012850D141B161
:102EA000314850F8270000B18047208840F00200E8
:102EB00007E02E4850F8270000B18047208820F016
:102EC000020020804AE094F8A400102200F08F064F
:102ED00006F00F0002EAD60210440125E278854090
:102EE00072B3A2682A422BD0B4F8A220B2BB320738
:102EF00026D0C9B1E168294230D104EB8000406995
:102F000020B131463846FEF78DF9C8B90122314665
:102F10003846FEF7CDF898B9E06831462843E060BE
:102F20003846FFF761F819E0E068284216D02069BA
:102F3000284213D1002231463846FEF7B9F810B1C5
:102F40000020BDE8F081E0683146A843E0603846E3
:102F5000FEF750FD31463846FFF71CF80120F0E738
:102F60001C54000820540008F8540008FC540008C1
:102F70002DE9FC5F94498046097888427ED29349C6
:102F800051F82870002F79D0FC68002CFBD0B4F8E1
:102F9000A400002872D1B4F8A6000028FAD100904D
:102FA00094F8A00010F01F0FF4D194F8A2004FF095
:102FB000000A10F0FF0F4FF0010B4FF4803977D06B
:102FC000797C8348002994F8951004D029B150F8F1
:102FD000280045699DE00029DCD150F828000569EA
:102FE00097E06878022804D0042868D0052863D1C7
:102FF00068E0697994F8A20081425ED129797A8AE1
:1030000091423BD8E070287984F89400002003E0D6
:103010007A6802F800A0401C798A8142F8D801261B
:10302000A1680BFA06F0014213D004EB8600406958
:1030300028B131464046FEF7F5F800281ED131464A
:103040004046FEF779F9002818D131464046FEF790
:10305000CBFFA16809FA06F0014218D004EB860004
:10306000406D30B146F080014046FEF7DBF80028A5
:1030700004D146F080014046019100E075E0FEF782
:103080005BF9002871D140460199FEF7ADFF761C2F
:10309000F6B2102EC4D34FF00110C4E9020AC4F8EE
:1030A00010A0E8794006208803D540F0010002E036
:1030B00034E020F00100208029E0688828E0E878EA
:1030C000009024E0009810BBA878102200F08F0137
:1030D00001F00F0002EAD10210440BFA00F604EBF3
:1030E0008000406918B14046FEF79CF8E8BBA06834
:1030F0003043A060E878AB8800F00302A97840462E
:10310000FDF782FF88BBA9784046FEF743FF287889
:103110000544287800287FF464AF41E0564684F8DF
:1031200003A001254FEA0B07A16807FA05F0014249
:1031300011D004EB8500406920B129464046FEF7D6
:1031400071F890B929464046FEF7F6F868B9294665
:103150004046FEF749FFA16809FA05F0014216D082
:1031600004EB8500406D38B100E02BE045F08001B4
:103170004046FEF757F828BB45F080018A46404696
:10318000FEF7DAF8F0B951464046FEF72DFF6D1C08
:10319000EDB2102DC8D34FF00110C4E9020626612C
:1031A000E07894F8A21088420CD1E178404600F013
:1031B00091F9084850F8281009B1E07888470120B3
:1031C000BDE8FC9F0020FBE71C54000820540008C9
:1031D000E4000020F45400082DE9FE4F0746614842
:1031E000007887427ED2604850F82760002E79D060
:1031F000F468002C76D0B4F8A600002872D183467B
:10320000CDF808B094F8A000D84600F01F00DA46C8
:10321000D946012866D1E078002871D0717C5348E6
:10322000002994F8951004D029B150F82700456979
:103230008CE0002956D150F82700056986E06878AF
:10324000022804D0042808D005287DD11FE0687921
:10325000E178884278D0688877E0B4F8A400718A71
:1032600088426AD295F8028095F803A04FF0000BCF
:10327000404569D1B4F8A210514565D170684FF04E
:10328000010910F80810029100F808A05CE0B4F8F9
:10329000A410414558D1A878102200F08F0000F00A
:1032A0000F01009002EAD000084401218140019101
:1032B000B4F8A220524524D1A168019A04EB800001
:1032C0001143A160E168019A9143E160406920B136
:1032D00038460099FDF7A6FF20B9E878AB8800F0E2
:1032E000030200E029E0A9783846FDF78DFE20BBF7
:1032F00038460099FEF74EFE01994BEA010B23E098
:103300001CE0029A92451FD1019A1BEA020F1BD1C1
:10331000A16804EB80009143A160E168019A9143A8
:10332000E160406920B138460099FDF77BFF20B984
:1033300038460099FEF700F810B10020BDE8FE8F76
:1033400038460099FEF750FE287805442878002872
:103350007FF475AFB9F1000F01D084F804804846BE
:10336000ECE700001C54000820540008E400002092
:1033700010B500200E4908604FF47C40091F08601A
:1033800000200C49087080210B48FCF7A3FF0B4874
:10339000002101604FF4B4710948FCF79BFF002045
:1033A00003490C3108608020091F086010BD00002F
:1033B000445C00402C000020006000402000002001
:1033C000C009002070B5054600240FE0094850F8F8
:1033D0002400806940B1074850F82400007FA842CB
:1033E00002D12046FFF79EF9601CC4B2012CEDDB30
:1033F00070BD00007400002070B5084D0446B02177
:1034000055F82400C068FCF765FF55F82400017CDE
:10341000C068C1F38011018070BD00002054000815
:1034200070B505460E4615B94FF0FF3070BD3146F8
:10343000284600F07BFD0446012C01D10020F5E771
:103440004FF0FF30F2E7000070B506460C46154617
:1034500026B1012E0DD0022E27D11BE0012C01DB5D
:10346000002070BD124951F82400012100F03CFDFC
:10347000F7E7012C01DB0020F3E7042D01D3002046
:10348000EFE70C4901EB041151F82500012100F090
:103490002BFDE6E7012C01DB0020E2E7064951F8AD
:1034A0002400012100F020FDDBE70020D9E7000027
:1034B000985400089C540008B054000810B5044605
:1034C00014B94FF0FF3010BD204600F023FD4042FC
:1034D000F9E7000070B505460E469EB100240FE0E6
:1034E000094850F82400806940B1074850F824008A
:1034F000007FA84202D12046FFF74AF9601CC4B2FF
:10350000012CEDDB70BD000074000020024A52F86F
:10351000200000F083B800004C000020F0B40E4DF5
:1035200001F00F03102455F8205004EAD10119448A
:10353000ED68142606EB810100246C50190341EA62
:103540000221064A127800FB0230054A52F8200098
:103550000068F0BC00F062B820540008B4540008C1
:10356000A800002000231A468021FDF7F1BD10B508
:103570008021FDF7A7FE002800D0222010BD0023E7
:103580001A461946FDF7E4BD10B504460021FDF7C3
:1035900099FE08B1222010BD064850F82400C068EA
:1035A000406D0028F7D02046BDE810408021FDF78F
:1035B00039BE00002054000870B505460C46072DA2
:1035C00025D2DFE805F0040F111315172200012C96
:1035D00001DB002070BD0F4951F82400002100F0EC
:1035E000C9FCF7E70020F5E70020F3E70020F1E74A
:1035F0000020EFE7012C01DB0020EBE7064951F842
:103600002400002100F0B6FCE4E70020E2E70020FF
:10361000E0E70000605400087454000870B50446E8
:103620000D4614B94FF0004070BD2946204600F009
:1036300089FCF9E73EB504462146002000F08EFCE7
:103640008DE807000098082801D101983EBD009838
:10365000402801D10020F9E74FF00040F6E70000D4
:1036600010B50446012C01DB002010BD034951F8C0
:1036700024002246012100F0A5FCF6E78054000852
:1036800070B504460D4614B94FF0FF3070BD2946A1
:10369000204600F0ADFC4042F8E710B5044614B9EE
:1036A0004FF0FF3010BD204600F0AEFC4042F9E77D
:1036B00010B501211048FCF7CFFF0E20012121B1E8
:1036C000012282400C4B1A6105E000F11002012337
:1036D0009340094A136100BF002301220E210648CE
:1036E000FCF77DFF10B94FF0FF3010BD00200349FB
:1036F000087000BFF9E70000000C01401D00002029
:1037000010B50020FFF752F90020FDF7E3F910BDD6
:103710002DE9F0476D48066806F4806048B1FFF770
:1037200027FE04206A49096888476FF4806067496A
:10373000086006F40060A8B16448001F006840F407
:1037400000606249091F08606248006820F00800B4
:103750006049086010205E49096888476FF400607E
:103760005A49086006F48050B0B15A48006820F009
:1037700008000830574908605448001F006820F4CA
:1037800000605249091F0860202051490968884794
:103790006FF480504D49086006F4804018B16FF412
:1037A00080404A49086006F4005018B16FF4005098
:1037B0004649086045480068064600F40040002875
:1037C0007CD006F00F04444901EB8400D0F8007C63
:1037D00007F40040002847D004F00F00C4F3C011E4
:1037E00001EB400000EB80003C4901EB800527F431
:1037F000004048F68F710840374A02EB8401C1F857
:10380000000C07F40060E8B135480068806835496D
:10381000022202FB0019DFF8D0804FF0000A05E019
:1038200059F8041B28F8021B0AF1010ABAF1040F27
:10383000F6D301202D490870E0B201212C4A12680C
:10384000904711E0E0B2FDF761FE686828B1E0B290
:103850004FF44051FCF7C6FF06E000202874E0B2A8
:103860000221234A1268904707F0800030B344F0E9
:103870008000C0F3C01104F00F0001EB400000EB2A
:103880008000164901EB800527F0800048F68F7113
:103890000840114A02EB8401C1F8000CA868A9890C
:1038A0000844A860686850B9002028602874E1B214
:1038B00041F0800004210E4A1268904704E0E1B212
:1038C00041F08000FDF790FEBDE8F087445C0040C9
:1038D000140000202000002000500040C0090020FB
:1038E0003000002000600040240000202C00002058
:1038F0001800002002E008C8121F08C1002AFAD1EF
:1039000070477047002001E001C1121F002AFBD15F
:10391000704710B5002A06DA22F00042D21D22F0CC
:103920000703102203E0D21C22F003030C2213B180
:103930009C188C4201D9012010BD024401448360CF
:10394000C0E90021C91AD018884202D81060024686
:10395000F9E70020106010BD10B504460A48007851
:10396000A04200D110BD084804702CB14FF4807102
:103970000648FCF713FF04E04FF480710348FCF79E
:103980000FFF00BFEEE7000001000020000C014027
:1039900010B504460A480078A04200D110BD08487E
:1039A00004702CB14FF480610648FCF7F7FE04E088
:1039B0004FF480610348FCF7F3FE00BFEEE7000020
:1039C000000000200008014010B504460A480078B5
:1039D000A04200D110BD084804702CB14FF48061A2
:1039E0000648FCF7DBFE04E04FF480610348FCF777
:1039F000D7FE00BFEEE7000002000020000C0140EF
:103A000008480068C0010BD507480068C00707D008
:103A1000054880380068002802DA0449012008704F
:103A200070470000FCED00E0800E00E00C0100207B
:103A30004FF06042D36F002BFCD0036BD367D36F82
:103A4000002BFCD0C07840EA0120A2F87C0070472F
:103A50004FF06041CA6F002AFCD081F87C007047AB
:103A600010B504462CB14FF400710548FCF798FEE0
:103A700004E04FF400710248FCF790FE10BD000016
:103A8000000801400EB5802200B109B110460AE0DD
:103A900001780129FAD101A900F05AF8042801D0CF
:103AA000002000E01020DDE9011203B000BD70B578
:103AB0000D46040003D012B92078012801D08020DF
:103AC00070BD204600F0EAFC28B12946204600F0EF
:103AD0006AF8002070BD812070BD10B500F05CFC5C
:103AE00010B10178022901D0802010BD4188A1F5D4
:103AF0007F42FF3A03D000F05DF8002010BD812026
:103B000010BD70B50C4601F021F84FF0004108B12E
:103B1000220C01D0084670BD058BC178A0B200F020
:103B200003F8284670BD00000A460146074810B554
:103B300000EB820050F8040C002805D000F002FED3
:103B4000BDE8104000F0EEBD10BD0000840900206B
:103B500010B504468089002824D0608904EB8000D9
:103B600000690860606840B16078022805D10021D2
:103B7000204600F0E7FD00F0D5FD04F10C0000BF89
:103B8000D0E85F1F491E8AB2C0E8512F0029F7D143
:103B90006089401C80B26081E189884201D10020A7
:103BA0006081042010BD10B500F0CCFDBDE81040D0
:103BB00000F0B8BD10B5002100F0C4FDBDE8104014
:103BC00000F0B0BD1CB501210420FCF72BFE012143
:103BD0000820FCF727FEFF20ADF800004FF46070CE
:103BE000ADF8040004208DF8030010208DF80700C4
:103BF00003208DF802008DF8060001A90848FCF7A3
:103C000063FC69460748FCF75FFC4FF460710448A9
:103C1000FCF7C4FDFF210348FCF7C0FD1CBD0000FC
:103C2000000C0140000801402DE9F0410446002548
:103C3000A8460026012001F0EFFA4FF480713948C0
:103C4000FCF7AEFD00202060606000BF62E0012054
:103C5000FFF706FF25B94FF480713248FCF79EFD4F
:103C60003048FCF797FD07460020FFF7F9FE0026D5
:103C700048E047FA06F000F00100002840D02A484A
:103C800000EBC500805DE03808282DD2DFE800F0A9
:103C900004090E13181D2227207840F0010020701F
:103CA0002DE0207840F00200207028E0207840F0DD
:103CB0000400207023E0207840F0080020701EE00F
:103CC000207840F01000207019E0207840F02000AB
:103CD000207014E0207840F0400020700FE0207841
:103CE00040F0800020700AE00F4800EBC500825DC4
:103CF0004046411C01F0FF08A11C0A5400BF00BF50
:103D0000681CC5B2082EB4DBB8F1060F00DB03E077
:103D1000681CC5B2102D9ADB00BF002001F07CFAB0
:103D2000BDE8F081000801409C52000810B504462F
:103D3000207800F0010018B10120FFF729FE02E011
:103D40000020FFF725FE2078C0F3400018B10120C5
:103D5000FFF702FE02E00020FFF7FEFD2078C0F32F
:103D6000800018B10120FFF72FFE02E00020FFF7CE
:103D70002BFE10BD1CB54FF4E060ADF80400102020
:103D80008DF8070001A91148FCF79EFB4FF48060F5
:103D9000ADF8000010208DF8030069460C48FCF7D0
:103DA00093FB4FF400710948FCF7FAFC4FF4806173
:103DB0000748FCF7F5FC4FF480610448FCF7F0FC81
:103DC0004FF480710148FCF7EBFC1CBD000801407A
:103DD000000C01401FB5FCF7FBFDFCF7A7FDFFF74A
:103DE000F1FEFFF7C7FFFFF78BFC1BE000200190FF
:103DF00001AB002211460120FEF7F7F9401C00B983
:103E000010E002A8FFF710FF01A8FFF78FFF0820BE
:103E100002AB0022114600900220FEF7EFF900B934
:103E200000E000BFE2E70000EFF3058109B1822066
:103E30007047DFF808C000DF70470000614E0008DF
:103E4000EFF3058008B182207047EFF31480C007BC
:103E500003D0DFF80CC000DF704701F00BB80000A2
:103E6000754E000888B0EFF3058010B1822008B0CD
:103E70007047EFF3148010F00301134806D00129B6
:103E80001BD0022911D0032919D113E008A981F30D
:103E900009880078C0070BD05FF0020080F3148817
:103EA000BFF34F8FBFF36F8F09E00078C00706D1D3
:103EB0000320F3E70078C00701D0FF20D7E7DFF841
:103EC0000CC000DFD3E7000034530008E54E0008C3
:103ED000EFF305820AB1FFF7D5BDDFF808C000DFB8
:103EE00070470000514F0008EFF305820AB100202F
:103EF0007047EFF31482D20702D1044A52781AB104
:103F0000DFF80CC000DF704701F03FB8E800002088
:103F10008B4F0008EFF3058109B1FFF7DEBDDFF835
:103F200008C000DF70470000AF4F0008EFF30582C4
:103F300012B14FF0FF307047DFF804C000DF704768
:103F4000D74F0008EFF305820AB1FFF7DABDDFF8BB
:103F500008C000DF7047000009500008EFF3058338
:103F60000BB182207047DFF808C000DF7047000007
:103F70002D500008EFF305820AB100207047EFF3DF
:103F80001482D20702D1044A52781AB1DFF80CC069
:103F900000DF704701F074B8E8000020815000088D
:103FA000DFF80CC000DFDFF80CC000DFFEE7000028
:103FB000ED50000809510008DFF804C000DF704729
:103FC00041510008EFF305830BB100207047EFF378
:103FD0001483DB0702D1044B5B781BB1DFF80CC004
:103FE00000DF704701F0B8B8E80000205951000820
:103FF000EFF305820AB182207047DFF808C000DFC6
:104000007047000091510008EFF3058109B182204B
:104010007047DFF808C000DF70470000F551000866
:10402000094C4FF0FF3529462068FFF751FF024643
:104030000846102AF7D1FFF7BFFF0028F3D0024649
:1040400008469047EFE7000008000020012806D04E
:10405000022805D0032804D0042804D102E003E09C
:1040600002E001E000E000BF00BF00BFFEE700BFCC
:10407000FEE70000074801684FF0E02041610021A1
:104080008161072101610448016841F07F410160BD
:10409000401770473053000820ED00E0704750E8AB
:1040A000001F31B10B6840E80032002AF7D1084602
:1040B0007047BFF32F8FFAE710B568B161B10B31CC
:1040C00021F00302016844680B1A1B1B934205D2BE
:1040D000084609680029F5D1002010BD210007D04D
:1040E00021180368C1E90032016001F1080010BD28
:1040F0004260083010BD000070B50D46002812D097
:104100004FF6FF71084C884204D2226801461046DF
:1041100000F046FB20684570044800F029F9BDE82E
:10412000704000F03DBC70BDF8000020940C0020F1
:104130000F4810B50D4942680E480B68006893425D
:1041400004D00A60CB88421E1A448A808A8880B2D2
:1041500082420AD100200860054800F009F90146B2
:10416000BDE81040024800F03FBB10BD1001002028
:10417000940C00200801002070B5194DE868002853
:104180002CD0A88A401EA882002621E0A06838B161
:1041900061684160606810B1A16881606660A66076
:1041A0000F482146183800F01FFBA08AA8826078CB
:1041B000042804D10B49E08A09880844A082012020
:1041C0006070E068E860E06808B10561E66026615B
:1041D000A88A002802D1EC68002CD7D170BD00005D
:1041E000AC0C00200801002070B504000FD00D4D6C
:1041F000A17801262868827891420CD900F010FB42
:10420000286846702046BDE8704000F0C9BB0648EB
:1042100000F0AEF8F7E766702146BDE8704002484E
:1042200000F0E2BAF8000020940C00200321FFF710
:1042300063BF000010B50446008B084320836278FA
:10424000618B062A18D0052A19D1084217D001EA35
:104250000002628388432083204600F00CFB01208B
:104260006070628B0821204600F001FB2146BDE80A
:104270001040034800F0B8BA31EA0002EAD010BD9D
:10428000940C00200246154810B500EB810050F850
:10429000044C002C21D0208B104320836278618B4A
:1042A000062A17D0052A18D1084216D001EA0002C2
:1042B000628388432083204600F0DDFA012060708D
:1042C000628B0821204600F0D2FA2046BDE810405B
:1042D000FFF78ABF31EA0002EBD010BD840900204D
:1042E00070B503460C480D460468208B42B133EA92
:1042F000000101D0062109E098432083022070BD0F
:1043000010EA030101D06183F6E7052163832846A3
:10431000FFF7F2FE012070BDF8000020814202D3B9
:1043200042688A4201D80120704702680A60BFF3E0
:104330005F8F50E8003F0A689A42F6D140E80012C9
:10434000002AF2D10020704768B161B1002208391B
:1043500002E00246006830B18842FAD12AB1006812
:104360001060002070470120704700214160F8E78D
:104370000146406842684A600B780022022B05D053
:10438000012B03D0032B01D04260704743680BB16F
:104390009960426082607047810700D000207047BA
:1043A00070B5044600201546207001226270A1708D
:1043B00084F824106060A060E06020612062A08228
:1043C000E0822083608384F82500E08C18B90548DA
:1043D000FFF765FEE06229462046BDE8704000F028
:1043E0001DB800009002002008B1082901D2012068
:1043F00070470144091F002201600A6042601046B4
:104400007047000003480021016003490988C1800A
:1044100070470000100100202453000870B5C28CC2
:104420001C4D930802D12A88C2F38D03C26A02EBA5
:104430008302540700D5121F4FF0807442E9021422
:1044400000242646B2F1400242F82460641C0E2C7F
:10445000FAD3C4691462826201632968C90014D561
:10446000112B12D94FF0FF31103B11EB53014FF0DC
:10447000CC3305D042F8043C42F8083D491EF9D13E
:10448000C16A121F8A4200D91360C06A02490160E2
:1044900070BD000020530008A52E5AE2C189808912
:1044A000081A704701220270002242708270426036
:1044B00002814281103982818908C18170470000E0
:1044C0002DE9F041044640680E464FF0000804F123
:1044D0000C05E8B36078012701283ED0022813D0EC
:1044E00003285CD10846FFF7DAFD050057D02046C7
:1044F000FFF73EFF0446294600F0B6F967702046F4
:1045000000F0B9F9214621E02046FFF731FF0646C9
:10451000002100F0A9F92189F06904EB810108610B
:10452000D5E85F0F401C81B2C5E8501F0028F7D1C5
:104530002089401C80B22081E189884201D1A4F801
:1045400008807770304600F096F93146174800E051
:104550000CE0BDE8F04100F047B92046FFF708FF46
:1045600004463246102100F082F9C7E7A089E189AC
:10457000884216D2208904EB80000661D5E85F0FDF
:10458000401C81B2C5E8501F0028F7D12089401C8B
:1045900080B22081E189884201D1A4F80880BDE879
:1045A000F081BDE8F0410320FFF750BD940C0020DE
:1045B00070B50446808915460026C0B3608904EBB7
:1045C0008000006908606089401C80B26081E189D8
:1045D000884200D16681606810B1607802280BD0F3
:1045E00014F10C04D4E85F0F401E81B2C4E8501FE0
:1045F0000028F7D1002070BD2046FFF7B9FE054620
:10460000002100F031F92189E86904EB810108619A
:104610002089401C80B22081E189884200D1268116
:10462000284600F028F92846FFF7DEFDE2E7FFE71D
:104630003DB10B48626801682AB1204600F0D4F809
:1046400008E0012070BD616001684E600068846010
:104650000120607008212846FFF74EFDF1E70000B9
:10466000F8000020002814D0411C13D00C4A4FF64B
:10467000FE7190420CD800EB4002C2EBC012094818
:10468000036803EBC202521EB2FBF3F0884204D966
:10469000084670474FF6FF70704780B270470000C1
:1046A00000093D004053000870B51B480121026815
:1046B0005170006800F0B4F8184D6C7818E000BF35
:1046C00005EBC40148680278EAB1012A20D000F065
:1046D00005F9E878641C844200D100240F48801C4E
:1046E000D0E84F1F491EC9B2C0E8421F002AF7D1C7
:1046F000A8780028E4D16C700948FFF739FEBDE8BE
:10470000704000F04DB9098989B2FFF793FDE0E7E9
:104710008968FFF7D5FEDCE7F800002000090020DB
:10472000940C00200548017811B1012141707047B7
:1047300003494FF0805008607047000000010020DE
:1047400004ED00E0F0B4154DAB1CEE784FEA050720
:10475000D3E84F2FB24202D1BFF32F8F11E0521C8A
:10476000D4B2C3E8424F002AF2D100BFD7E84F2F9E
:10477000541CB44200D10024E4B2C7E8434F002BDC
:10478000F4D1EB78934205D905EBC202C2E90101ED
:10479000F0BC7047F0BC0220FFF758BC00090020B5
:1047A000104A10B5D368ABB113469B8A03E08CB1B5
:1047B0002246A48A2344D4688B42F8D3C460D060D4
:1047C0000261C46804B12061591A8182908A401A3A
:1047D000908210BD0024C460D060C91A0261918229
:1047E000848210BDAC0C002030B502780023022A70
:1047F00003D0012A01D0032A00D101238C7800E0E4
:104800001046426812B19578A542F9D24A604160DB
:104810001BB102B19160886030BD0020FBE7000051
:1048200003494A6842600022826048607047000085
:10483000940C002010B5836804462BB960780128D9
:104840000ED1084B03E09B6818780028FBD0204667
:1048500000F026F82146BDE810401846FFF7C4BF17
:1048600010BD0000940C0020806A01627047806ACD
:10487000C0E90812704710B5016900290ED0C2685E
:10488000CA60C36800223BB18B8A848A23448B822E
:10489000C3681961C26000E08A82026110BD000035
:1048A000816839B142684A604168002901D0806856
:1048B00088607047054906E04A68824202D1406834
:1048C0004860704711460029F6D17047940C0020CB
:1048D00002220270002242604180704710B5416898
:1048E00081B1FFF745FD0446FFF7C5FF0120607069
:1048F00001462046FFF7B8FF2146BDE810400348B7
:10490000FFF772BF4188491C418010BD940C002004
:1049100010B5416861B1FFF72BFD04460121FFF797
:10492000A3FF2046FFF7A7FF2046FFF75DFC02E04C
:104930004188491C4180002010BD000010B50C4684
:10494000418819B1491E4180002010BD34B10A4A86
:104950004368116823B1FFF747FF07E0012010BD4E
:104960004160136800215960116888600721204662
:10497000FFF7C2FBF2E70000F800002006480068DD
:10498000D0E90A10814203D300680449884202D06A
:104990000120FFF75BBB7047F8000020A52E5AE20C
:1049A0000749022248604270064A1278002A05D060
:1049B00006C98A4202D0C078FFF74AB870470000A3
:1049C000F80000200C01002070B5FFF719F8002056
:1049D0000446204A204902E042F82040401C0B884F
:1049E0009842F9D31D48342201881D48FEF791FFF3
:1049F0001C48008880B240F000421B4801681B48F8
:104A0000FEF787FF1A48082201881A480068FEF757
:104A100080FF194DFF20194AE870EC8400212846D8
:104A2000FFF7BEFC16480421017044601548017070
:104A3000C4600461848214481549056002206870CE
:104A40001248047044700978C170BDE87040FFF7E7
:104A5000D9BC0000840900201C53000848530008FA
:104A600018010020205300084C5300089002002039
:104A70007053000810000020600C00206F400008F8
:104A8000940C0020AC0C0020F8000020000900204D
:104A9000545300081B4810B5016841F47F010160C0
:104AA00000684FF07F4101EA00201649C0431439E5
:104AB000B0FA80F00968C0F10800C1F30221814218
:104AC00000D3481C0F49091F0B686FF080728240A9
:104AD00063F317020A60FFF7CDFA0B49002808605C
:104AE0000EDB00F1E021FF2281F8002400F01F021C
:104AF000012191404009800000F1E020C0F8001140
:104B000010BD000020ED00E0040100200C4810B5AD
:104B10000268012151700068FFF782FEFFF708FB71
:104B200008480168491C0160FFF726FB00F088FB7C
:104B30000548FFF71DFCBDE81040FFF731BF00003E
:104B4000F800002008010020940C0020002805D067
:104B5000810702D10178002900D0002070470000B1
:104B600030B50B4C0023626805E095688D4204D88F
:104B700013461268491B002AF7D10260816012B106
:104B80009568691A91600BB1186030BD606030BDE6
:104B9000E80000200D4B0022596803E0814204D058
:104BA0000A4609680029F9D104E019B1016822B167
:104BB000116003E04FF0FF3070475960016819B190
:104BC0008A6880681044886000207047E8000020F0
:104BD0002DE9F0411E46174680460D4611F0FF0FA5
:104BE00000D14D1C1848FFF75AFA041E16D0280AA7
:104BF000E762E084E9B242462046E661FFF7D0FB77
:104C000001251248124905E000EB850252F8042CF8
:104C100032B16D1C0A889542F6D90020BDE8F081BA
:104C2000002DFAD000EB850040F8044C0948E570EF
:104C3000007818B101212046FEF7FAFE2046FFF762
:104C4000D3FA2846EAE70000180100208409002072
:104C50001C5300080C0100202DE9F05F584DDFF8CF
:104C60005891DFF8588129684FF0010A002618B1E1
:104C7000CA78AB46824243D14E70FBF74CFA2968A2
:104C80008862FFF77BFE2868046A1FE06068C0B195
:104C90002046FFF76DFB07460021FFF7E5FD38468C
:104CA000FFF7E9FD87F801A039464648FFF79CFD6C
:104CB000E168A4F802A0A760386AE0603C620C4694
:104CC00004E0E0686680A660E6600446002CDDD162
:104CD0002868C27808EB820141F8046CC16A3A483E
:104CE000FFF71CFB2868C66299F8001011B100217B
:104CF000FEF79EFE35482968FFF710FB2E6056E050
:104D00003349098888420CD808EB800858F8045CBD
:104D10003DB12846FFF7C4FD2846FFF7ACFD2C6ADD
:104D200022E0FF20BDE8F09F6068C0B12046FFF799
:104D30001FFB07460021FFF797FD3846FFF79BFD55
:104D400087F801A039461F48FFF74EFDE168A4F837
:104D500002A0A760386AE0603C620C4604E0E068AC
:104D60006680A660E6600446002CDDD148F8046C3D
:104D70001548E96AFFF7D2FAEE6299F8000018B117
:104D800000212846FEF754FE29461048FFF7C6FAD0
:104D90000C48DBF8001040688B7882789A4209D979
:104DA00081F801A00748DBF80010FFF71DFD002087
:104DB000FFF71AFA0020B5E70C0100208409002053
:104DC000F8000020940C0020900200201801002020
:104DD0001C53000870B51A4D80B11A4A12889042CF
:104DE0001FD8194A02EB800050F8044CCCB1A170D6
:104DF00084F824102868A04205D014E02868817047
:104E0000286880F82410114840688078884215D9B5
:104E10000E482968FFF7E8FC296801204870002047
:104E20000AE0FF2070BD2046FFF704FD60780128EE
:104E300004D10648FFF79CFAFFF7D6F9002070BDB1
:104E4000F80000201C53000884090020940C002066
:104E500002480068002800D0C0787047F8000020A1
:104E600010B5002804D0FFF7FDFBFFF7DFF9402065
:104E700010BD000010B5134C207860B912484007EF
:104E800005D1124801681048FFF7AEFA08B1852035
:104E900010BDFFF799FD0E49FF2009688870207842
:104EA00058B900210B4800F041F80B490860002177
:104EB0000A4800F0E5F80A49086001202070002047
:104EC000607010BDE800002050070020505300081B
:104ED000F80000206853000808000020585300081C
:104EE0000400002070B50F4D687808B1002070BD37
:104EF0000D4C206890F824100020FFF76BFF20680D
:104F0000C178FF2903D1816A203181F30988616862
:104F100011B9606000202060FFF7BCFD01206870BF
:104F2000E4E70000E8000020F800002010B50400CD
:104F300005D0216819B1606808B102780AB1002073
:104F400010BD8900103189B2FFF7ACFA606810BD5E
:104F50003EB504000D464FF0800012D021780129A3
:104F60000FD12846FFF77EFB0246204601A9FFF736
:104F70001FFB012801D0102003E00DB1402000E00C
:104F80000020DDE9011203B030BD10B5002807D0C4
:104F9000046824B1207810B9B1F5803F01DB00200E
:104FA00010BD89B22046FFF793FC204610BD10B516
:104FB000FFF7F2F910B10178022901D0802010BD6D
:104FC0004188A1F57F42FF3A03D0FFF7A1FC002002
:104FD00010BD812010BD70B50D46FFF7DDF904004E
:104FE0004FF0FF300DD0217802290AD12846FFF773
:104FF00039FB01462046FFF7A1FC012802D060885A
:10500000401C70BD002070BD70B50C46FFF79EFDC2
:105010004FF0004108B1220C01D0084670BD058B4D
:10502000C178A0B2FFF72EF9284670BD70B50446CE
:105030000D46000C01D086201EE008462CB1FFF77B
:1050400011FB0146A0B2012205E0FFF70BFB014670
:1050500000224FF6FF70FFF743F9022802D04DB14E
:10506000402008E008200CB1214605E0034909680A
:10507000498B01E000200021324670BDF80000207D
:1050800070B50E46040029D0206838B3606810F16E
:10509000030F23DB032821DCE16829B11048FFF767
:1050A0000BF805001AD000E000256068E168001DDB
:1050B00040EA012133462A462068FFF789FD40B1C6
:1050C000084901EB8000084950F8040C826A5163DA
:1050D00070BD1DB129460248FFF736F9002070BDAA
:1050E0005007002084090020A13F000810B5FFF7F9
:1050F000AFFE002804D0034901EB800050F8040CF7
:1051000010BD00008409002010B5FFF71FFD18B185
:10511000C18C19B1C46A02E0802010BD0024C0789F
:10512000FFF79AFDFF2806D01CB121460348FFF780
:105130000BF9002010BD812010BD00005007002099
:1051400010B5FFF729F920B141690A6801691046D5
:1051500010BD0020014610BD10B503000CD018682A
:1051600050B15868002808D009B1012904D1074C72
:1051700024680CB104790CB1002010BD0024046037
:10518000012404714171C0E9042310BD0400002012
:1051900070B50E46FFF700F9040016D0BEB1144AF0
:1051A00000214FF47A7310681268401E41F1FF35F8
:1051B000E6FB030529460023FBF754F80546207952
:1051C00001280CD0022808D103E0802070BD862081
:1051D00070BD2046FFF7DEFC20B1812070BD0220AB
:1051E0002071E56029462046FFF7BAFC002070BD1B
:1051F0004053000810B5FFF7CFF818B10179022924
:1052000008D101E0802010BD01210171FFF7C2FC2F
:105210000028F8D0812010BD10B5044634B1012C0F
:1052200009D180210548FBF7BBFA04E0802103483F
:10523000FBF7B4FA00BF00BF10BD0000000801403A
:105240002DE9F041134E7468002C1CD0A068124F59
:10525000401E4FF00108A06012E0254624687460EB
:10526000002229463868FEF722FC10B10420FEF720
:10527000EDFE6879012808D085F80480002C02D062
:10528000A0680028E9D0BDE8F0812846E968FFF76A
:1052900067FCF3E7E8000020080000200000E000C1
:1052A0000000E40000E100000000E500292B351EAD
:1052B00014041D0064393A1F1A161B003D3C3B20A4
:1052C000080706000A172221150919053E2A42433C
:1052D00000319E2C0B1C2324180D1011E2000046F7
:1052E000470000E652004A4D57584850635E4B4E07
:1052F000615B5556625D4945605A544F005C4C44B1
:105300005F595351002F2D27133300380040412699
:10531000120F37003F302E250C0E3600070000001C
:10532000C800020105000100001BB7000C000000CE
:10533000DF2E000001000000020001005200040006
:10534000E80300000000000078010000C004000035
:10535000B001000010000000214000080200000021
:1053600001000000C800000004000000A0090020A7
:1053700000000000D53D0008000000000100000012
:10538000C800000002020002000000008000880047
:105390009000D0001001500190019801A001A801D7
:1053A000B001B801C001C801D001D801D521000861
:1053B000AD2100083D290008B1360008A52A0008E3
:1053C000290E0008790E0008B90E0008F90E000831
:1053D000350F0008FD2B0008011D0008F120000812
:1053E000C11E0008ED1F0008C92000086920000840
:1053F000B9210008AC53000848000020280B002009
:10540000680B00208000010002400000310A000803
:105410000100000001000000000200000100000087
:10542000F45300080100000060000020620000202A
:1054300064000020680000206C0000207000002044
:10544000280C002000000101100020004000400056
:105450001000200040004000010101000100010097
:105460000C540008072200080100000001000000A1
:10547000000200006454000809280008480C0020BD
:105480007854000878000020800000208800002068
:1054900090000020980000208454000888540008E0
:1054A000905400088C54000894540008A000002078
:1054B000AC54000802000000370A0008450A000842
:1054C000F52100080D220008EB210008FD2100084D
:1054D000E5210008F7210008150E0008230E00083A
:1054E000250E0008170E0008130E0008210E0008F4
:1054F0001F0E0008F70D0008FB0D0008F90D00084D
:105500000B0E0008090E0008030E0008FD0D000830
:105510000600FF0901A101150026FF00750895018D
:105520000901810295010901910295010901B10268
:10553000C0000000B8000020070500004000001275
:105540000110010000004051C200000001010203EF
:10555000010902290001010080FA09040000020388
:105560000000040921110100012221000705810327
:10557000400010070501034000100000000000007B
:105580000403090412034E0053005300200054008A
:10559000450041004D002C03490042004D00200011
:1055A0003500310037003000200055005300420024
:1055B00020004B006500790062006F0061007200FE
:1055C00064001A0330003000300031004100300028
:1055D0003000300030003000300030001603490049
:1055E00042004D00310033003900310034003000FA
:1055F0003100000001000100010001000200040070
:10560000080010002000400080000001000200049B
:1056100000080010B0349503385600080000002040
:1056200018010000F4380008505700081801002045
:10563000B00F000004390008000000000000000066
:10564000000000000000000000000000000000005A
:10565000000000000000000000000000000000004A
:1056600000000000000000000060004000A24A04AA
:105670000000000000000000010203040607080902
:10568000000000000000000000000000000000001A
:10569000000000000000000000000000000000000A
:1056A0000000000000000000000000002854000876
:1056B00000000000000000000000000000000000EA
:1056C00000000000000000000000000000000000DA
:1056D00000000000000000000000000000000000CA
:1056E0004C000020540000200000000000000000DA
:1056F0001055000821001200385500083F550008D9
:105700007B5500087C550008515500087D55000860
:105710007E5500087F55000880550008C000002015
:105720000000000000000000000000000000000079
:105730000000000000000000000000000000000069
:105740000000000000000000000000000000000059
:0400000508000241AC
:00000001FF
